:20000000E43F00203585000001CA011001CA011001CA011001CA011001CA011001CA0110BB
:1C00200001CA011001CA011001CA011001CA011001CA011001CA01103FCA011082
:20003C001FB58DF80C002448016824480088E0B123480068014218D022480068014204D1FD
:20005C0021480068008801420FD0224840F2CD43046800930CA201929DF80C001C4B029083
:20007C001A881A4B186804A3A047032003A9012208F096FA00901FBD50726F6A6563745A38
:20009C0065726F2E6300C0462843422920474150205374617465206368616E67653A202573
:2000BC00642C2053656E64696E67206D736720746F206170702E00C034BD000078BD0000CD
:2000DC00400500003C0500004405000050BD00008405000048BD000008B5014688684968F5
:0400FC00884708BD6C
:200100003C000000000000000000000034010000000000000000000001000000000000006D
:1C01200000000000000000000000000001000000000000000800000000000000BA
:20013C00340000000000000000000000680100000000000000000000010000000000000005
:14015C00010000000000000000000000080000000000000086
:2001700030000000000000000000000098010000040000000000000001000000FFFFFFFFA5
:10019000FF00000001000000080000000000000057
:2001A0002C0000000000000000000000C4010000040000000000000001000000FFFFFFFF4D
:0C01C000FFFFFFFF08000000000000002F
:2001CC0034050000E401000099A1011095A70110A5C2011009B2011045B80110000000000B
:0801EC00000000002D000000DE
:2001F400280000000000000000000000140200000000000000000000FFFFFFFF00000000B1
:080214000800000000000000DA
:20021C00300500003002000069C201106DC101101FC2011095BA011000000000000000008E
:04023C002F0000008F
:20024000300500005402000075C20110A9B601109DBF011049B601100000000000000000DE
:04026000300000006A
:200264002400000000000000000000008002000000000000000000000000000008000000CC
:040284000000000076
:20028800240000000000000000000000A40200000000000000000000000000000800000084
:0402A8000000000052
:2002AC00240000000000000000000000C8020000000000000100000000000000080000003B
:0402CC00000000002E
:2002D00000000000A02D00200400000000000000000000002000000070010000300000005C
:2002F0001C020000A82D00200400000000000000000000000C00000030040000180000007F
:2003100040020000B02D002004000000000000000000000024000000480400001800000002
:2003300000000000B82D002004000000000000000000000010000000A00100002C000000C7
:20035000CC010000C02D002004000000000000000000000020000000640200002400000005
:20037000FFFFFFFFC82D002004000000000000000000000028000000880200002400000082
:20039000FFFFFFFFD02D0020040000000000000000000000580000003C0100003400000067
:2003B000FFFFFFFFD82D00200400000000000000000000001000000060040000180000007C
:2003D000FFFFFFFFE02D00200400000000000000000000001C000000AC02000024000000F2
:2003F000FFFFFFFFE82D002004000000000000000000000038000000F40100002800000063
:20041000FFFFFFFFF02D002004000000000000000000000054000000000100003C000000FE
:1804300018000000000000000000000040040000080000000000000050
:1804480018000000000000000000000058040000080000000000000020
:18046000180000000000000000000000700400000800000000000000F0
:0804780002000000FCBC0000C2
:0404800030BF7047D2
:040484000100000073
:0404880000000E0F53
:04048C0000003E0F1F
:040490003200000036
:040494000200000062
:040498002C2C0020E8
:04049C00000200005A
:0404A000D99B0000E4
:0404A40001CA011078
:0404A8000000000050
:0404AC00000000004C
:0404B0000800000040
:0404B4000000CE1165
:0404B800C02B002035
:0404BC00010000003B
:0404C000242D0020C7
:0404C400080000002C
:0404C8000000000030
:0404CC00000000002C
:0404D0000000000028
:0404D4000000000024
:0404D8000000000020
:0404DC00010000001B
:0404E0008C2C002040
:0404E400060000000E
:0404E800010000000F
:0404EC002C2B002095
:0404F0000000000008
:0404F4000000000004
:0404F80000020000FE
:0404FC0000000000FC
:02050000704742
:020502002900CE
:020504000100F4
:020506002400CF
:020508002F00C2
:02050A003000BF
:02050C002D00C0
:02050E000100EA
:0105100001E9
:0805140003000000D0BC000050
:08051C000000000000000000D7
:040524000000A10D25
:040528000000BB0D07
:04052C0087C401106F
:04053000380500008A
:040534003805000086
:0405380000000000BF
:04053C0080610000DA
:0405400080610000D6
:0405440000000000B3
:04054800242D00203E
:04054C007D9C000092
:040550002000000087
:040554003CBC0000AB
:0405580028BB0000BC
:04055C000DC30110BA
:04056000C788000048
:0405640037990000C3
:0405680099C801101D
:04056C009BC8011017
:040570000000000087
:0405740034A10000AE
:0405780098B900002E
:04057C00B0B9000012
:0405800080B900003E
:020584000280F3
:020586000380F0
:02058800421718
:02058A0001006E
:01058C00016D
:040590000000000067
:040594000000000063
:04059800000000005F
:04059C00000000005B
:0405A0007D9B00003F
:0405A4004988000082
:0405A800999700001F
:0405AC00A98A000018
:0405B000A57A000028
:0405B400FD8B0000BB
:0405B8004572000088
:0405BC00BD980000E6
:0405C000617B00005B
:0405C40011C8011049
:0405C80021C8011035
:0405CC000800000023
:0405D0002400000003
:0405D400180000000B
:0405D80028000000F7
:0405DC0020000000FB
:0405E0003C000000DB
:0405E4000C00000007
:0405E80034000000DB
:2005EC002DE9F04FADF1840D00F016FD9148944904889148096806689048924A006806EA62
:20060C000007119706EA010712971768A74A1588A74A12681492A74A12681592A64A1094BA
:20062C001268169202EA00040A401892A34A17941268199202EA00040A40A2491A94A04830
:20064C001B9200681C90A0391D9194A113910820ADF820000A24ADF822404FF0FF3309933E
:20066C0008A808F0EDFB0028F1D100200F900824ADF830400923ADF832300CA808F0E0FB3A
:20068C00DDF838C0CDF878C00028CDF83CC040F02A81BDF834004FF00108102840F01B818B
:2006AC00A848BDF836108088884240F01481644620884FF6FF71814200F091802378913B7A
:2006CC0070D01F3B40F007816078109A162840D020797E2824D07F2810D0131C5CD0119B2B
:2006EC00002B59D0129B13B93888064254D040F2594000909CA3019320790FE0002A4BD0FA
:20070C00119B002B48D0129B13B93888064243D040F2544000908DA301932089314610E020
:20072C001699002A38D0179B002B35D0189B13B93888014230D040F24F400090BFA3019321
:20074C00207A0290DDF854C0139B14982A46E04722E019999AB11A9B8BB11B9B13B9388855
:20076C0001420CD040F23640A1A30090DDF854C001932079139B029014982A46E047608851
:20078C00082108F005FE38B9404604F03BFE6D484FF0000804619EE0217904F1080009F016
:2007AC004BF998E060780E2840F09580109C002C00F09180119C002C00F08D80129C1CB9EC
:2007CC003888064200F0878040F21940C5A400900022DDF854C001943146029258E06088BF
:2007EC00000978D357480469002C74D040785549B4F802B0401C487094F804A0102008F0FD
:20080C00E7FF04F10809041C1ED00221152209F0DDFAA4F808B084F80AA0C4F80C9008F0DE
:20082C00E7FFC44A214608F0DFF80446162C0CD10FE0C04678BD000034BD000040050000B9
:20084C003C0500004405000004243E480069042C3AD1109C1999002C3DD01A9C002C3AD02D
:20086C001B9C14B93888014235D0364840F28E4200690092C9A401940079324B029058780B
:20088C0003900022049214460594DDF870C00692139B14982A46E0471DE0C04650726F6AE2
:2008AC006563745A65726F2E6300C0468405000050BD000048BD000030BD000038BD00003C
:2008CC004CBD0000CC1F00204088002108F060FD204604F097FD0F9C2CB1B8F1000F02D0BA
:2008EC001E9809F0CDF81748C06809F019FC00287FF4ADAE1348C06809F00EFC8346024656
:20090C0010999BF808000BF10904002800F0C681401E00F01181401E00F0F980401E00F02A
:20092C000383401E00F0A880401E40F000830B1C45D0119B002B42D0129B43BB38880642C6
:20094C003DD001E0B01E002021E0C0464D54552053697A65206368616E67653A202564206E
:20096C00627974657300C04652656365766965642047415454204D6573736167652E204F45
:20098C0070636F64653A2030782530327800A378002B0CBFBBA0BEA040F2A12100220091CE
:2009AC00ABA30193DDF870C0029011460392139B0491149805922A4606913146E047B4F8EF
:2009CC000080102008F004FF041C00F0B0820121132209F0FBF9A4F808800020A07202463C
:2009EC00E26008F005FFAC4A214607F0FDFF9EE24F7574676F696E67205246204649464F95
:200A0C002066756C6C2E2052652D7363686564756C65207472616E736D697373696F6E200E
:200A2C006F66206D73672077697468206F70636F64652030782530327800C046466C6F7793
:200A4C0020636F6E74726F6C2076696F6C617465642E204F70636F6465206F66206F6666F9
:200A6C00656E64696E6720415454206D73673A2030782530327800C0002902F1090423D0A8
:200A8C00119B0BB3129B13B9388806421CD020780D2814BF97A09AA06378002B0CBF9BA155
:200AAC009FA140F21B32BCA30092DDF870C0019300220290139B03911498049211460591BC
:200ACC00314606922A46E04723780D3B1CD05B1E40F02D8201200146641C224602F0D6FB2A
:200AEC0025E2C04648434920436F6D6D616E6420436F6D706C657465204576656E7420721D
:200B0C00656365697665640001210020E4E7238841F210101B1A06D0103B40F00882207940
:200B2C006188641DD9E720796188621D03F01CFEFDE1C046BD9D000023880FF2642E0FF2F4
:200B4C00742CA2A2B3F5895340D0103B40F0EF81B4F8050048B1401E04D0401E08BFCDF860
:200B6C007CE003E0CDF87CC000E01F922079012840F0DD81002900F0DA81119C002C00F00B
:200B8C00D681129C1CB93888064200F0D0811F9940F2F23077A47EA2E9E0C0465265747273
:200BAC0079696E67206D6573736167652077697468206F70636F6465203078253032782E02
:200BCC0020417474656D707420256400B4F8050048B1401E04D0401E08BFCDF880E003E058
:200BEC00CDF880C000E0209224799CB1641E40F09E81002900F09B81119C002C00F0978181
:200C0C00129C1CB93888064200F0918140F29530A8A20FE0002900F08A81119C002C00F01E
:200C2C008681129C1CB93888064200F0808140F28A309AA24FA49BA3209900900194029359
:200C4C000392049100240594224606921DE1C046426F6E644D677220526571756573746586
:200C6C00642070617373636F64652E205765206172652025732070617373636F64652025C1
:200C8C0030366400446973706C6179696E6700C053656E64696E6700AF9D0000238841F2B8
:200CAC0010101B1A00F09B80203B40F040812379002B3ED05B1E40F03A81002900F0378172
:200CCC00119B002B00F03381129B1BB93888064200F02D8140F2C5300090B8A301936079E7
:200CEC000290A0790390E07904900022059211460691CAE0427574746F6E203100C046C0D9
:200D0C00427574746F6E203000C046C01B5B33336D72656C65617365641B5B306D00C0468E
:200D2C001B5B33326D707265737365641B5B306D00C085480021282206F088FB8248641D9A
:200D4C002722214605F056FF109C002C00F0EF80119C002C00F0EB80129C1CB93888064297
:200D6C0000F0E580784940F2BE308BA491A2A2A363E7C04643434344204368616E676520A7
:200D8C006D73673A2025732025733A20257300C053747265616D00C0257320257300C04622
:200DAC00496E6469636174696F6E7320656E61626C6564004E6F74696669636174696F6EE0
:200DCC007320656E61626C656400C0464E6F74692F496E642064697361626C656400A1784E
:200DEC001D9A601D06F02AFD04F105092479109B0FF2142A0FF21428002C5FD0641E40F0C2
:200E0C0096801C1C1CD0119CD4B1129C14B93888064215D07E4940F256305FA4009059A3E4
:200E2C005BA20194DDF870C00293002414980392139B049122460594314606922A46E0472B
:200E4C00744899F800208069072107F061FE109C002C6CD0119C002C69D0129C14B9388851
:200E6C00064264D099F8004004B1C24640F25E3040A300903BA401940293CDF80CA000228D
:200E8C0004921146059114460694DDF870C0139B149831462A46E04749E0C04642555454F4
:200EAC004F4E3000427574746F6E205365727669636500C0425554544F4E3100E3B1119CDE
:200ECC00D4B1129C14B93888064215D0504940F2473031A400902BA320A20194DDF870C048
:200EEC000293002414980392139B049122460594314606922A46E047464899F800208069DA
:200F0C00062107F005FE109C8CB1119C7CB1129C14B9388806420AD099F8004004B1C246F6
:200F2C0040F24F3009A3A4E7507A02F03FFE0820ADF82800CDF82CB00524ADF82A400AA844
:200F4C0007F07EFFCFE4C046CC1F00201B5B33316D4C4544301B5B306D00C0464C454430E3
:200F6C0000C046C05475726E696E6720257320257300C0461B5B33326D4C4544311B5B304E
:200F8C006D00C0464C45442053657276696365004C45443100C046C056616C756520436878
:200FAC00616E6765206D73673A2025732025733A20257300537472696E6700C056616C75B8
:200FCC0065204368616E6765206D73673A20446174612053657276696365205374726561EF
:200FEC006D3A20253032783A253032783A253032782E2E2E00C046C0446174612053657299
:20100C007669636500C046C06F6666006F6E00C02C1F0020B01E00202DE9F04F0820ADF10B
:20102C00AC0DADF830000120ADF832000CA807F007FF9848BDF83410984A81800E9916886C
:20104C0081609549DFF8589209680FF25C2A2991DEB148460068014217D0C34800680142ED
:20106C0004D1C2480068008801420ED0C248046840F2731790A500230097BE4F0195BC4DA7
:20108C0002933A8828685346A047824C00214034204609F03DF87F4801460F46C4606431CA
:2010AC0007F1580005F068FF4D46DFF8D0B2D5F8009039468861F8B958460168D6B111EA8D
:2010CC00090F17D0A8480068014204D1A7480068008801420ED0A848046840F2811786A544
:2010EC0000230097A34F0195A14D02933A8828685346A04709F008F8664866494C307031DA
:20110C0005F03AFF6349486108BB58460168D6B111EA090F17D094480068014204D19348BE
:20112C000068008801420ED09348046840F287177AA5002300978F4F01958D4D02933A88FD
:20114C0028685346A04708F0DFFF524840698C4908F067FEF8B158460168D6B111EA090FDE
:20116C0017D081480068014204D180480068008801420ED08048046840F28D176FA5002319
:20118C0000977C4F01957A4D02933A8828685346A04708F0B9FF03A800212422082308F038
:2011AC00AFFF0D20784D0990DFF8D8B12A6839484FF47A77322403ABB7FBF2F1D4308AB26A
:2011CC006243594608F098FF0E20324A2968099003AB02F1F800B7FBF1F189B24C432246FD
:2011EC00594608F089FF4FF00008012540F205308DF89E500DF19E02ADF84C80294602F00D
:20120C0035FE40F20630022113AA02F02FFE214A4FF44270294602F029FE1E4A40F207306F
:20122C00112114468C3202F021FE8C34002E00F0BE80299810EA090F00F0B9804A482999DB
:20124C000068014205D1494800680088014200F0AE80104F4146202207F1B20006F0F6F869
:20126C004448434F444BB0F800B038681F682A904046225C401CC0B2235C0119092B18BF06
:20128C00082B02D11F2AC0F281801218D0B22028EFDB07E0B01E002034BD000078BD000087
:2012AC004005000077E0C04650726F6A6563745A65726F2E6300C046496E697469616C693F
:2012CC007A696E67207468652075736572207461736B2C2068617264776172652C20424CC3
:2012EC004520737461636B20616E642073657276696365732E00C0464572726F7220696E5B
:20130C00697469616C697A696E6720626F617264204C45442070696E7300C0464572726FF8
:20132C007220696E697469616C697A696E6720627574746F6E2070696E7300C04572726F16
:20134C0072207265676973746572696E6720627574746F6E2063616C6C6261636B20667548
:20136C006E6374696F6E00C03C0500004405000050BD00008405000048BD000030BD000004
:20138C0051620000DD77000028BD00009548491C521E05F02FFC934B40F2BF107BA42999C3
:2013AC0000905A4601942A9802935346B8470620A02107F011FD0720A02107F00DFD082070
:2013CC00A02107F009FD0920A02107F005FD28461E2107F001FDCDF848802F468DF89F5048
:2013EC0040468DF8A05004218DF8A10012AA8DF8A2704FF4816007F0D5FC4FF480600DF13B
:20140C009F02394607F0CEFC40F2024028AA394607F0C8FC40F2034039460DF1A10207F0D3
:20142C00C1FC40F2064039460DF1A20207F0BAFC032007F009FE042007F006FE6648674AFE
:20144C00132107F059FA6649032007F0AFFAB74CB74A052104F10C0007F04EFA29990FF263
:20146C00541ACEB111EA090F16D0B2480068014204D1B1480068008801420DD0AF48046894
:20148C00DA2705250097AE4BCDF804A0AD4F02951A883868C0A3A047C448057907F0A4FFD9
:2014AC00C14900288B46C8602DD008F081F907F09BFFCBF8100030B308F07AF9C44A0BF1CA
:2014CC001400072107F018FA2999D6B111EA090F17D098480068014204D197480068008849
:2014EC0001420ED0954840F20117046800970723CDF804A0924F0293924B3A881868B5A315
:20150C00A0478BF80050A948C74C082504230779ADF83C502278ADF83E30900010900FA868
:20152C0007F08EFC00280CBF11984046BF490028C86059D008F03CF9BC48BD4A06214C30A0
:20154C0007F0DAF9DDF8A480E6B118EA090F19D07848006818EA000F05D177480068008864
:20156C0018EA000F0ED075480568EE23062200937349CDF804A0734B02920A88186841466A
:20158C0099A3A847A948077030E0C0464E616D6520696E206164766572744461746120617D
:2015AC00727261793A201B5B33336D25731B5B306D00C0465265676973746572656420736C
:2015CC006572766963652C202564206174747269627574657300C04674270020C4BC000004
:2015EC00F39E0000621F0020DDF8A4806F484F4981A728308860D6B118EA090F17D04D49DF
:20160C00096818EA010F05D14B490968098818EA010F0CD04949E9230D6800934849019712
:20162C00484B02900A88186841465BA3A8475F483030CBF80800DEB118EA090F18D03D490A
:20164C00096818EA010F05D13B490968098818EA010F0DD039494FF489730D680093384966
:20166C000197384B02900A881868414659A3A8474E486E4938308860D6B118EA090F17D008
:20168C002C49096818EA010F05D12B490968098818EA010F0CD02949FF260D680096284BF7
:2016AC000197284902901A8808684FA34146A8470DF14E000021282205F0C8FE5D490DF1F3
:2016CC007600282205F096FA002001210DF14E0203F04AF801200DF14E02014603F044F80F
:2016EC00002001210DF14E0201F0D0FD01200DF14E02014601F0CAFD002028210DF1760243
:20170C0001F022FC012014210DF14E0201F01CFC607898BB2548267CA5781C3020631820A3
:20172C0008F056F8071C29D00EE0C046D02A0020A4BA00003C0500004405000048BD000040
:20174C008405000050BD00000421002208F07CFA304607F0AFFF38727D720020B87204F13F
:20176C004A06FE6004F15A033B6104F12C027A6108F03EF8304A394607F036F90C2008F052
:20178C0027F8041C1AD00121042208F01FFB07482030A0600CE0C0464C45445F5365727655
:2017AC006963652E6300C046DC290020B01E002008F01EF8214607F06FFEFFE7012007F06B
:2017CC005DFC022007F05AFC2BB0BDE8F08FC046FCBA0000427574746F6E5F536572766996
:2017EC0063652E6300C046C0446174615F536572766963652E6300C052656769737465727E
:20180C0065642063616C6C6261636B7320746F206170706C69636174696F6E2E20537472F5
:20182C0075637420257000C064230020A428002078BA000019BA0000F99E00002DE9F84F4F
:20184C00044640F294214FF0010A41F21000C4F22231C4F20900C0F800A0086810B90868F5
:20186C000028FAD046F2000043F6B477C021C4F20C00C5F200070160D7F8008057F8041C4E
:20188C0046F25620C4F20800890806D257F8081C090C41F0F001017001E07221017041F234
:2018AC00B821C5F200010968C1F304611629A8BF20393A68121753185B1C13F10A0FB8BFC1
:2018CC006FF0090300254FEAD8624FEA986103F01F03C4F2203582F00102002C43F4F85384
:2018EC0081F00101038302F001022A6001F00101A96041F25035C5F200056FD02968C1F370
:20190C008360C1F38F265FEA984164D248F30721002927D54A42B1F1FF3F4FEA620215DA97
:20192C00760805D1400806BF504656464FF6FF76760801F1010105D1400806BF50465646C7
:20194C004FF6FF76521E01F10101E9D15FEA582208D3760805D1400806BF504656464FF62D
:20196C00FF76491C002936DD02294FEA610E01F001091EDB4FF6FF7C760046F00106B44512
:20198C0007D2400040F001000F2892BF56460F206646760046F00106B44507D2400040F0FD
:2019AC0001000F2892BF56460F206646BEF1010EE2D1B9F1000F0EDD76004FF6FF7146F0A5
:2019CC000106B14207D2400040F001000F2892BF56460F200E1C46EA004603E040F6FF7636
:2019EC00C0F20F0608F011FA0021002808BF514648F20009C4F20C09D9F8000018B9D9F8E9
:201A0C0000000028F8D04AF2080BC4F20C0BCBF81060C9F800A009B108F0FDF9002C08BF7F
:201A2C00D82107D029682868C1F3870100F0030041EA002188B2009040F2FF3200232C2191
:201A4C004AF20000C4F20C0006F0B2F83CB141F27C30C5F200000068C0F30D0501E040F219
:201A6C00FF3508F0D2F90021002808BF5146D9F8000018B9D9F800000028F8D0CBF8145032
:201A8C00C9F800A009B108F0C6F9002C04BF0025C6F688050CD041F27430C5F20000016838
:201AAC004FF6FC45C0F2FC0501F07C400D40054308F0ABF90021002808BF5146D9F800008B
:201ACC0018B9D9F800000028F8D0CBF80C50C9F800A009B108F09FF9002C04BF47F28A6587
:201AEC00C0F2680509D041F27030C5F20000006801040D0C00F47C00054308F086F9002182
:201B0C00002808BF5146D9F8000018B9D9F800000028F8D0CBF80850C9F800A009B108F0A2
:201B2C007AF9002C33D041F27830C5F20000056857F8042CC5F30341C5F30350520816D230
:201B4C0043F6AC72C5F200021268130510EB237003D4102802DB0F2000E00020120411EB1C
:201B6C00227103D4102902DB0F2100E0002141EA001105F47F4005F0FF02222C40EA014005
:201B8C0042EA000207D305F08045154304E043F62772C0F27102154608F037F90021002878
:201BAC0008BF5146D9F8000018B9D9F800000028F8D0CBF80450C9F800A009B108F02BF90A
:201BCC00222C07D341F28C30C5F200000068C0F3007000E050464AF240064000222CC4F264
:201BEC000C0640F0200086F8090107D341F28C30C5F200000068C0F3407000E0504640F0FE
:201C0C001000202C86F8090138BF00250AD341F29830C5F200000168C1F38455C80C00F46B
:201C2C004070054308F0F1F80021002808BF5146D9F8000018B9D9F800000028F8D0CBF8F2
:201C4C002050C9F800A009B108F0E5F8202C07D341F29830C5F200000068C0F3015000E0F4
:201C6C0000204000222C40F0600086F80C0107D341F28C30C5F200000068C0F3C06000E0F4
:201C8C000020C000222C40F0800086F8010107D341F28C30C5F200000068C0F3455000E0CA
:201CAC0000208000202C40F47C40A6F89C013CBF48F20005C4F23F050ED341F29830C5F23A
:201CCC00000000680503A90D890505F47C1500F00F000D4345EA003508F097F80021002837
:201CEC0008BF5146D9F8000018B9D9F800000028F8D0CBF80050C9F800A009B108F08BF86E
:201D0C0044204FF0880E86F8C50086F8C7E03CB141F28C30C5F200000068C0F3C14000E087
:201D2C00002040F03001C8F3815086F8C81070B3401E06D0401E25D00420022106F06BF9E9
:201D4C002FE0504607F090FC04460420214606F062F9042007F088FC8442FAD157F80C4C52
:201D6C0024F07F4007F008F940F2B410C1F200000068036807214FF06022200E98474FF4D7
:201D8C00806030600420032106F045F909E00420514606F040F943F2BD70C0F2860007F0E7
:201DAC00EBF841F2B820C5F20000D0F8B4004BF2700242F22C0E46F2000B47F618014FF001
:201DCC00000C41F21009C4F20C02C4F2090E40F2944800F03F0086F8CB0FC4F20C0B11801B
:201DEC00DEF80000CBF800C0C4F20909C9F800C0C4F26028C8F800A0BDE8F88F2DE9F04F16
:201E0C000120ADF1440DADF81A000827ADF8187006A807F015F800263546C64C8DF83E5013
:201E2C00BDF81C00208266700898A0624FF6FF70E082384607F0CCFC5FEA00080DD0012108
:201E4C00122207F0C3FF07F0D3FC0DF13E010123C94A0091414606F0E5FD9DF83E0001216A
:201E6C00207004F1A80007F0A1F804F1CC00022107F09CF804F1F000042107F097F8042076
:201E8C0031461022A07004F14A0005F0DFFA04F15A003146102205F0D9FAE562E67126727A
:201EAC000720A67204F14A0210216072022007F097F804F15A020320102107F091F80420A2
:201ECC0004F12C02014607F08BF822E06578228B618BA38BE08B062D1BD1062A19DBB2F517
:201EEC00486F16DA062914DBB1F5486F11DAB3F5FA7F0EDA0A280CDBB0F5486F09DAE08305
:201F0C0022836183A383012005F04EFBBC4808F010F80A20ADF80A00ADF808704FF0FF353A
:201F2C00039502A806F08CFF002840F07F8130460C90ADF824700925ADF8265009A806F03F
:201F4C007FFFDDF82C900028CDF8309040F06E81BDF82800102840F05D81208ABDF82A10DE
:201F6C00884240F057814D4628884FF6FF71814200F048812B78A23B00F02B812E3B40F05A
:201F8C004981A878B046002800F0F880801E00F0D380401E012840F2A780801E5DD0401EDB
:201FAC0024D0401E03D0083800F0048107E1AC4807F0BFFF0C994878002840F0008108461E
:201FCC00C1882184018961844089A0848C4807F081FE002840F0F380656B002D00F0EF803A
:201FEC002B68208C618CA28C984713E1B5F804A00A2007F0EDFB5FEA00080AD001211522CA
:20200C0007F0E4FEA8F808A007F0F2FB414607F043FAB4483146062205F018FA26846684BE
:20202C00A684A8796073764807F083FF8C4807F080FF4FF001084FF6FF702379E0824BB9F7
:20204C00A879082814BF042005206070404607F053FDB4E003206070B1E06B78E27A002BE8
:20206C003CD1A049281D03680B6080888880062363706889E082E8892084288A6084688A47
:20208C00A084E878012A207308D11F2006F016FC4FF47A7141435A4806F056FD95F803B0F5
:2020AC00B5F80AA0142007F093FB5FEA000800F089800121142207F089FE88F808B02D1D62
:2020CC00C8F80C50A8F810A0042088F8120007F08FFB7D4A414606F087FC73E068783128FE
:2020EC0066D1E67004201EE06878002860D1A878A18A6278032811D0E078257921B90128C2
:20210C0014BF2671E67005E0054303D0714806F01BFD6278072AE5D1062004E0062A06D05B
:20212C00E07810B9032060704CE00220FBE70720F9E7C046642300206878002838D1E8782A
:20214C00A17988B96078022813D0072811D0062802D1207901280CD15E4807F0BBFD40B935
:20216C00012007F0C9FC04E05F4A404605F07CFF68706878E0B922E0CB9D00006878B8B9E7
:20218C00554A0220102106F045FF544A0320102106F040FF5548ED1C29680160AB88838012
:2021AC00534A012528466179657005F05DFF48B1677007E0A888454A102106F0C6FFB8F1D7
:2021CC00010F27D1206B28B3016819B36078884720E0687913281DD12889012808D1A07BD1
:2021EC00022805D11E4807F0A4FE06F0E9F811E0052006F063FB0146194806F0A5FC09E06B
:20220C00302400206888C00B04D3354A0420014606F000FF0C9848B1ADF810700320ADF843
:20222C001200CDF8149004A806F00AFE608A2579E17842082ED320F0010055EA010360820B
:20224C0028D07DB92B49E0798DF83400257A8DF835500A680DF136031A608988998004E0E4
:20226C005424002003208DF83400607AA57A184A8DF83C0006218DF83D500DA806F076F96F
:20228C00216B30B1677021B1086810B1096838468847608A810806D320F002006082304677
:2022AC0005F082F9608AC108FFF433AE20F00400A57B6082681E3FF409AE401E7FF429AEED
:2022CC0006F07EF825E6C046A19D0000179F00000B9F00000C240020AE230020BE23002095
:2022EC0090230020A8230020ED2300209C230020CE230020A22300202DE9F04F09AF0C46B0
:20230C0016461D46ADF13C0D089039880996171CADF8181008BF002000F002824FF0000B6E
:20232C007F1CCDF838B0EDE1252E40F0D88139787F1C09972D291CBF0E98ADF8060005D15B
:20234C000121781CADF8061039780990302918BF0E9805D109990A460120521C097809926D
:20236C000E9A2A2984464FF0FF36009224D133462A6802930999CDF810C0D21C0B4622F069
:20238C000302121D5B1C2A6052F8042C09780993002A009218D50123ADF806305242009297
:2023AC0012E0009F099A7B0003EBC703CB18571C303B099711780093302901DB3A29F0DBCA
:2023CC00CDF810C0324602922E292CD1099A11782A2902F10102099211D129680E9BC91CEB
:2023EC00029321F00301091D296051F8046C002E48BF1E1C1178521C3346099212E00E9EA7
:20240C0033460BE0099A730003EBC60689191346A1F130065B1C117809933346302901DB6F
:20242C003A29EFDB029308B1009804906C2905D04C291CBF0E9AADF8042007D10999012320
:20244C000A46ADF80430521C097809920DF1380C0AAFCDF814C00E9A07976429039200F0D1
:20246C00AE80692900F0AB80BDF81830752979D0782975D06F2971D070294AD063293AD089
:20248C0073291CD0099F012CA7F10107099714D9A7480068B6F1FF3F04D0B44284BF761CCB
:2024AC00029600D80294844609A92A466B4608A8E047014603988B44BBE01046BAE02868CA
:2024CC00099FC01C20F00300001D286050F8040C002B7F1C014608B993A00146079107F085
:2024EC00A9FB0390B6F1FF3F00F0A580B042C4BF301C03909FE02868C01C20F00300001D30
:20250C00286010F8041C8DF828100127039738468FE0082128680491C01C20F00300001D39
:20252C00286050F8047C16460EA8824A07F00F01515C3F0906F1010600F8011DF5D1082E55
:20254C0006DAC6F108063021761E00F8011DFAD14021461E00F8011C604667E0082102E032
:20256C00102100E00A212A68D21C22F00302121D2A6052F8048CB042BCBF301C04900E9EF0
:20258C000EAF8A4681464046514606F0F7F86948405CB8FBFAF8B8F1000F06F1010607F832
:2025AC00010DF0D1B14506DDA9EB06003021401E07F8011DFAD105980797C01B38E0296877
:2025CC00C91C21F00301091D296051F8041CB042BCBF301C04900EAE82460F46002958BF77
:2025EC00914604D57F42A0F1010A4FF02D09904638460A2106F0C2F84E48405C0A23B7FB0D
:20260C00F3F7002F08F1010806F8010DF0D1C24506DDAAEB08003021401E06F8011DFAD1A9
:20262C00B9F1000F18BF06F8019D05980796801B0390099F7F1CBDF806600099091A00914F
:20264C00BEB911E0012C0DD90898641E30B907F061FB38B1202007F055FB03E02021017090
:20266C00461C08960BF1010B0098401E0090E9D503980646401E0390D6B9BDF806000028B8
:20268C0040D00098401E00903CD4012C0DD90898641E30B907F03EFB38B1202007F032FBED
:2026AC0003E020210170461C08960BF1010BE8E707994A1C07920E78012C0DD9089B641E45
:2026CC003BB907F027FB10B1304607F01BFB039802E01E705B1C08930BF1010BC9E7012C9B
:2026EC0007F101070CD90898641E30B907F012FB30B1304607F006FB02E00670401C08903F
:20270C000BF1010B17F8016C0998002E00F1010009907FF409AE089808B10E990170584696
:20272C000FB0BDE8F08FC046286E756C6C2900C05CBD000063BC00002DE9F84FCF4ED04C0A
:20274C0006F12D07CB4DDFF83083D7F8EF1F6368D7F8F30F8843C7F8F30F002BC7F8FF1F93
:20276C0000F090816688012B00F04A81DFF86CA3DFF86CB3DFF86C93022B74D0032B40F0F6
:20278C00DA810026A06857F8311C66600028A1F5C061B8BF40420A46002AB8BF5242904213
:2027AC002EDA002954BF02206FF00100A26900EB4100032190FBF1F18918A161E3686069C8
:2027CC0098420BD0B1F11002B8BF524220691038B8BF40428242B8BF88B209DB98B200907C
:2027EC00D64830214FF47F42082305F0E1F9208A0090D24804214FF4F802122305F0D8F9AF
:20280C002846066001688908FCD206605546012746600E202F6003F0EDFDC9480468EFF348
:20282C00118584F3118859460820B0FA80F00A1AD07F431E0128D37704D14A46106820F0D1
:20284C000800106085F31188EFF3118384F311880420B0FA80F0091AC87F421E0128CA77EB
:20286C0040F0CA80C3E057F8316CB6F5C06F00F08B804FF00309C4F8049007F0C6FAB34623
:20288C00002600B90126554633462D1F2E68002EFCD0AC4A0126D2F82CA02E600BB107F042
:2028AC00BAFACAF30720E06007F0AFFA002300B933461A462B68002BFCD0A248D0F800A003
:2028CC002E600AB107F0A7FACAF38441ABF5C0602161BBF5C06FA060B4BF6FF0010302236D
:2028EC00E26803EB400393FBF9F00918104602290FDB1E290BDB3F28B9BF521C401C3F2217
:20290C00101C62613029B4BF10391F210DE060610BE010F13F0FACBF401E6FF03F00606157
:20292C0011F1100FACBF10310021A16180B2009082484FF47F420823302105F039F97F48A1
:20294C00009604214FF40032112305F031F9208B00907A4804214FF4F802122305F028F93E
:20296C00002547F8399C4446256020688008FCD27248294660220523009105F019F9266034
:20298C0020688008FCD367E0002161602846016002689208FCD201605546012741600E208F
:2029AC002F6003F027FD66480468EFF3118584F3118859460820B0FA80F00A1AD07F431E0E
:2029CC000128D37704D14A46106820F00800106085F31188EFF3118384F311880420B0FAAE
:2029EC0080F0091AC87F421E0128CA7704D14A46106820F00400106083F31188BDE8F88F8B
:202A0C0057F8312C02214BF2F52061605043000A36B94D49096821F07F414018400801E0E3
:202A2C00002161800835010C2860012669600323AE60444647F8393C00252560206880089A
:202A4C00FCD23E48294660220523009105F0B0F8266020688008FCD347F8216C47F8395CCA
:202A6C000820C7F8FF0FC7F8F30F47F8396CBDE8F88FC04634600C4038600C400C400C4022
:202A8C00EC2C0020314800680068014620208847B24641F61D564FF002090F2000214FF4D4
:202AAC00C072CAF800000723CAF804602348CDF8009005F07DF8464628460125056056F8C9
:202ACC00040C8008FBD32088CAF8105001280BD00020294605F04AF94D462BE004800C4081
:202AEC00082E0020602A002040464FF000080C30C0F80080032347F8393CC6F800803068D9
:202B0C008008FCD20D48CDF8009041466022052305F04EF8356030688008FCD3202047F83A
:202B2C00210C47F8398C0826C7F8FF6FC7F8F36F47F8395C6560BDE8F88FC04600A00C4025
:202B4C0024BD000004A00C4010200940A00100102DE9F04F09AFADF13C0D1E460025DFF81A
:202B6C00F891DFF8F881DFF8F8A108903C8838790A92DFF8F0B10B90FF200D90087809916E
:202B8C00022809D10846494640680F88008842F60213834200F0E880099805F063F80746D9
:202BAC004946ACA2002F0B880C97994640D07F1E1FD096480168D3B195480068014216D013
:202BCC0094480068014204D140460068008801420DD0934840F2292797A6046800978F4B80
:202BEC0001968D4F02951A8838688FA3A0470A2009E150465F46B9F1000F4FF0140A016896
:202C0C00079707F1040B3FD08148006801423BD080480068014204D1404600680088014274
:202C2C0032D080484FF40973076800939AA31DE050465F46B9F1000F4FF0280A0168079757
:202C4C0007F1020B20D07248006801421CD071480068014204D1404600680088014213D04D
:202C6C00704840F21623076800938DA30192029308980390049605940B98684B06901A88D7
:202C8C00654B186868A3B847A24530DD3719BA4521DA5E480168B9F1000F1AD05C480068F2
:202CAC00014216D05B480068014204D140460068008801420DD05A484FF40D7307680093BF
:202CCC0079A20192554B0295534D1A88286856A3B8470D252CE009980A99C06832462018DF
:202CEC0003F088FFABF800700C980D9020E047480168B9F1000F1AD045480068014216D041
:202D0C0044480068014204D140460068008801420DD0434840F22F23076800936BA2019254
:202D2C003E4B02953C4D1A8828683FA3B84707250D98FF280DD00798806850B1076847B107
:202D4C00A419A0B200900C9A0A9B089841F23011B847284657E0C04678BD00004405000041
:202D6C0034BD0000A428002050460068002F81462ED02748006819EA000F29D025480068C1
:202D8C0019EA000F05D140460068008819EA000F1ED00B98FE280CBF0FF254180FF26C1843
:202DAC00099804F05FFF1F4940F2FB130F68009359A20192029008980390CDF8108017495A
:202DCC000595154B06950A881868494616A3B847089809990A9A0094334604F097FD054633
:202DEC005846083007686DB967B1786850B1099804F038FF009602460A9B7C68089841F25D
:202E0C003011A047E8B20FB0BDE8F08F30BD0000400500003C05000050BD000084050000F8
:202E2C0048BD00004CBD0000446174615F536572766963652E6300C041747472696275742E
:202E4C006520776173206E6F7420666F756E642E00C046C0577269746541747472434220AA
:202E6C003A20257320636F6E6E48616E646C6528256429206C656E28256429206F66667359
:202E8C00657428256429206D6574686F64283078253032782900C04653747265616D00C0A8
:202EAC00537472696E6700C0496E76616C69642076616C7565206C656E67746820776173BE
:202ECC002072656365697665642E00C0416E20696E76616C6964206F66667365742077613C
:202EEC0073207265717565737465642E00C046C02D20726573746F72696E6720626F6E6480
:202F0C00656420737461746500C046C02D204F544120777269746500577269746541747425
:202F2C00724342202843434344293A20706172616D3A20256420636F6E6E48616E646C65A8
:202F4C003A202564202573002DE9F04F05467F487F4CADF13C0D0FF2442C0F46DFF8F4A17F
:202F6C00DFF8F491DFF8F4810088DFF8F4E107902E1C0890E068099245D0761E21D0BD486E
:202F8C00079F0168002F00F0DD80BB480068014200F0D880B9480068014205D15046006824
:202FAC000088014200F0CE80B5484FF49A7771A604680097434601964F4602951A88386803
:202FCC0076E0089E8346231D04F11002704614210B93002E0A9205680C914FF001030D9399
:202FEC003FD0A548006805423BD0A4480068054204D1504600680088054232D04FF4987382
:20300C006DA200211CE0089EA31C704604F1240200210B9305680A920D9128230C9306B339
:20302C009548006805421CD094480068054204D1504600680088054213D040F2251360A290
:20304C00904806680093CDF804C002920397049105914346069149461A88086841A3294695
:20306C00B0470C98B84226DA8248089E0168002E68D081480068014264D080480068014255
:20308C0004D150460068008801425BD07D4840F24D16046800964CA5019502970023039326
:2030AC000C9A0492464605934D460693328828682CA3A04746E00A9809993A4603F09AFD04
:2030CC000D9E0B98002E07803CD00798294600282BD069480068014227D0684800680142F6
:2030EC0004D150460068008801421ED0654B40464E4602889BF802701D683068002F19A3D7
:20310C0008BF3FA703D0012F0CBF44A749A74FF4A27600964CA60196BBF80060029603978E
:20312C000027049705970697A84706200090564F0A99207804F14C030022019058460297D5
:20314C0003F060FC0FB0BDE8F08FC04678BD0000A42800204405000050BD0000840500002B
:20316C0034BD0000446174615F536572766963652E6300C0536574506172616D657465728A
:20318C003A20506172616D6574657220232564206E6F742076616C69642E00C05365745051
:2031AC006172616D65746572203A202573206C656E3A20256400C04653747265616D00C02C
:2031CC00537472696E6700C04C656E677468206F75747369646520626F756E64733A204CDC
:2031EC00656E3A202564204D696E4C656E3A202564204D61784C656E3A2025642E00C0464B
:20320C001B5B33336D4E6F74692F696E642064697361626C65641B5B306D00C04E6F746990
:20322C006669636174696F6E20656E61626C656400C046C0496E6469636174696F6E2065FD
:20324C006E61626C656400C0547279696E6720746F2073656E64206E6F74692F696E643A74
:20326C0020636F6E6E48616E646C652025782C20257300C030BD0000400500003C05000054
:20328C0048BD00004CBD0000FD4200002DE9F04F0546BE4CBC48DFF800B3DFF800A3DFF84C
:2032AC000093DFF80083DFF804E30F46ADF1340D0FF2FC1C2E1C0892E16802882069079231
:2032CC003CD0761E20D0B2480168171C00F0CF80B0480068014200F0CA8058460068014257
:2032EC0005D1504600680088014200F0C080AE484FF4A57764A604680097434601964F46DC
:20330C0002951A883868B0E00B90A61D7046A31C002A0A96056809933AD09E4800680542F3
:20332C0036D058460068054204D150460068008805422DD04FF4A37364A217E0261D704640
:20334C00631C0B910A96056809930AB39148006805421DD058460068054204D1504600684B
:20336C000088054214D040F23B135AA2904806680093CDF804C00292039700210491059136
:20338C004346069149461A8808683AA32946B047022F46DA002F44D0099808993A4603F0D4
:2033AC0029FC079E0A982946002E07802BD079480068014227D058460068014204D150465F
:2033CC000068008801421ED040460B9E0288784B4846B7781D680068002F26A308BF3FA7F5
:2033EC0003D0012F0CBF44A749A74FF4AD7600964CA601960B9E3688029603970027049738
:20340C0005970697A8470720009020780190694F02970B98099904F11403002203F0F2FAF5
:20342C0025E05C4D5A4C07982A682168061C1ED011421CD058460068014204D15046006807
:20344C000088014213D05A4840F26316046800963FA5019502970123039300220493464651
:20346C0005924D4606923288286802A3A0470DB0BDE8F08F427574746F6E5F5365727669E3
:20348C0063652E6300C046C0536574506172616D657465723A20506172616D657465722019
:2034AC00232564206E6F742076616C69642E00C0536574506172616D65746572203A202559
:2034CC0073206C656E3A20256400C046425554544F4E3100425554544F4E30001B5B333330
:2034EC006D4E6F74692F696E642064697361626C65641B5B306D00C04E6F746966696361F7
:20350C0074696F6E20656E61626C656400C046C0496E6469636174696F6E20656E61626C10
:20352C00656400C0547279696E6720746F2073656E64206E6F74692F696E643A20636F6ECE
:20354C006E48616E646C652025782C20257300C04C656E677468206F757473696465206243
:20356C006F756E64733A204C656E3A202564204D696E4C656E3A202564204D61784C656E0F
:20358C003A2025642E00C04678BD0000DC29002030BD0000400500003C05000044050000F2
:2035AC0050BD00008405000048BD000034BD00004CBD0000BD4000002DE9F04F09AFADF1C2
:2035CC003C0D08900B9397F804B00A923F880991084604F09FFBB149DFF8C8A2DFF8C892D8
:2035EC00DFF8C882B74B0E8800240546FF2084A2002D0D90B149B2480C953DD06D1E1FD06C
:20360C00A7480168D6B150460068014216D048460068014204D140460068008801420DD0F4
:20362C00A54840F2ED176FA605680097A14B01969F4F02941A88386866A3A8470A20C5E032
:20364C0000F1040C002E07900968CDF838C03CD050460068014238D048460068014204D107
:20366C0040460068008801422FD018464FF4F4730568009373A319E000F1020C0790096868
:20368C00CDF838C00EB35046006801421DD048460068014204D1404600680088014214D0C7
:2036AC0018464FF4ED730568009368A301920293089803900B9A049205977E4BCDF818B06A
:2036CC001A887B4B186843A3A847002F4CD10B9D60A2ED19022D28DACDB9BBF1180F18BFC4
:2036EC00BBF1120F13D150466D4900680968002E38D0014236D048460068014204D14046D5
:20370C000068008801422DD040F201261FE009980A990B9AC068381803F06CFA002D42D01C
:20372C000C980D900E9E35803DE05D480168CEB150460068014215D048460068014204D1FD
:20374C0040460068008801420CD04FF4FC765A4805680096574B0192554E02941A883068C6
:20376C001CA3A8470D241EE04D480168D6B150460068014216D048460068014204D1404620
:20378C000068008801420DD04B4840F2F3163AA305680096474E0193454B029432881868D6
:2037AC000CA3A84707240D98FF280ED00798806858B106684EB10B980C9A0A9B3F18B8B2DE
:2037CC000090089841F21011B04720460FB0BDE8F08FC0464C45445F536572766963652EE0
:2037EC006300C04641747472696275746520776173206E6F7420666F756E642E00C046C094
:20380C005772697465417474724342203A20257320636F6E6E48616E646C6528256429204B
:20382C006C656E28256429206F666673657428256429206D6574686F642830782530327872
:20384C002900C0464C45443100C046C04C45443000C046C0496E76616C69642076616C75F7
:20386C0065206C656E677468207761732072656365697665642E00C0416E20696E76616C8C
:20388C006964206F666673657420776173207265717565737465642E00C046C078BD000022
:2038AC0030BD0000400500003C0500004405000050BD00008405000048BD000034BD0000B4
:2038CC00D02A00204CBD00002DE9F04F8146B9F1010FADF1140D40F04981A6480068EFF3F2
:2038EC00118280F31188AE4D2879012818BF012002D102210020297182F31188012800F089
:20390C00338106F0F5FB0290A6480668701906F007FC00242746009405EB06080197A8B975
:20392C00404606F0E1FB0646B068400808D3F0683169024601209047C0B2012800F00D8151
:20394C00304606F0CDFB0646B045EDD1002F40F0088106F0C1FB0390049787480760012009
:20396C0005F082FE012804D1384604F027FF01200090824F386880680146204688478048E2
:20398C000068B9F1010F40F08A80874E0A36F37903B10124B3790BB144F0020473790BB19B
:2039AC0044F00404DFF8DCB173782BB1B86A006B59460246C88D904733782BB1B86A006BE0
:2039CC0059460246488D90476F4901200860B86A8069014644F0200088476C4A2968DFF874
:2039EC00B4A1106840F001001060480812D2684806F0BBF98146B9F1040FF8D0514608686C
:203A0C0020F003000860B86C4068024660480321904701E001200190049801F095F9B86A98
:203A2C005749806B09688047019850B9B86C406802465748494690475146086840F00300C2
:203A4C00086038688068014601208847524908688009FCD30098012802D1012004F0AEFE7B
:203A6C00B86A4069014620468847B86A406B0146204688470128F8D174782CB1B86AC06AA3
:203A8C0059460246C88D9047307828B1B86AC06A59460246488D90473B49012008603B4916
:203AAC00032208682A7120F001000860404606F037FB049900B101214FF00109081C19D1DC
:203ACC00404606F011FB44460646B068C00807D3F0683169024604209047C0B2012806D01C
:203AEC00304606F0FDFA0646B442EED102E02B48006880472048224FC0F80090386806F01B
:203B0C008AF9404606F00CFB049FD0B9404606F0EBFA46460446A068000907D3E068216973
:203B2C00024608209047C0B2012806D0204606F0D7FA0446A642EED103E018480068804731
:203B4C00022748462871039806F0C2FA03F042FF029806F0B9FA384609E010480068804757
:203B6C00022701202871F3E7062000E0022005B0BDE8F08F24BD00000C4009409001001064
:203B8C002C20094034B90000282008600C20084000400340242208401410094018BD000020
:203BAC00602A002014BD00003C2D00202DE9F04FA549A64EA64DA74CDFF89CB2DFF89CA29E
:203BCC00DFF89C92DFF89C820F88401EADF1240D00F09080401E75D0801E61D0401E4DD02E
:203BEC00401E2ED0401E17D0401E40F0C9803168002F00F0C5802868014200F0C1802068B8
:203C0C00014205D15A4610680088014200F0B88040F2023060A766E03168002F00F0B080DB
:203C2C002868014200F0AC802068014205D15A4610680088014200F0A38040F2F62058A7AB
:203C4C0051E040F2153004A901F08AFE04A804F083FA3168002F00F093802A68114200F0CD
:203C6C008F802268114205D15A4612681288114200F0868040F2F12750A676E03168002F1B
:203C8C007ED0286801427BD02068014204D15A4610680088014273D040F2FE2051A722E09C
:203CAC003168002F6CD02868014269D02068014204D15A4610680088014261D040F2FA20E8
:203CCC004EA710E03168002F5AD02868014257D02068014204D15A461068008801424FD065
:203CEC0040F2E7204AA74246146800900197002602963FE04FF4417006A901F031FE9DF82D
:203D0C0019308DF8113000218DF814109DF81A208DF813109DF818008DF812209DF81D3001
:203D2C008DF810009DF81C208DF8173004A98DF816209DF81B304C4A8DF8153008681060BD
:203D4C004B68536006A804F007FA3168C7B12A68114215D02268114204D15A46126812880D
:203D6C0011420DD040F2E2272CA64246146800970196029053464D4618682A8802A3A0474C
:203D8C0009B0BDE8F08FC04650726F6A6563745A65726F2E6300C0464572726F7200C04616
:203DAC00436F6E6E656374656420616E64206164766572746973696E6700C046436F6E6EBD
:203DCC0065637465642E205065657220616464726573733A201B5B33326D25731B5B306DA5
:203DEC0000C046C0436F6E6E656374696F6E2074696D6564206F757400C046C044697363ED
:203E0C006F6E6E6563746564202F2049646C65004164766572746973696E670047415020E1
:203E2C00697320737461727465642E204F757220616464726573733A201B5B33326D2573BF
:203E4C001B5B306D00C046C078BD000034BD0000400500003C0500004405000050BD00007B
:203E6C008405000048BD0000DF260020F8B5A0F2013517460E46022D40F214818B4A8A49BF
:203E8C002D1F0F2D04D9143D4BD0AD1E1CD011E0DFE815F0C300BD00F500E500B500AD0015
:203EAC000801A4009C0010001000940089007A006F006100272880F2F580022E40F0F2801E
:203ECC00398804F089FFF8BD012E40F0EB800D46E878012800F0E6800A46387811791071DD
:203EEC0081B9002800F0DE805078012800F0A980042800F0A680062800F0A380052800F05C
:203F0C00A080F8BD3878002840F0CC805078032800F0A280072800F09F80052800F09C80F0
:203F2C00F8BD012E40F0BE803878012840F0BA800D4605F1F00005F0CDFE002840F0B2805D
:203F4C00002003F031FB002840F0AC802846CC3005F0EFFFF8BD022E40F0A48038880A281A
:203F6C00C0F2A080B0F5486F00F39C8015461E3517E0022E40F096803888B0F5FA7F80F28D
:203F8C00918015461C350CE0022E40F08B8038880628C0F28780B0F5486F00F383801546AD
:203FAC001A352880F8BD022E7CD13888062879DBB0F5486F76DC0D461835F2E7012E71D1F2
:203FCC00387802286EDA0D460B350EE0012E69D13878042866DA0D460A3506E0012E61D1D4
:203FEC00387808285EDA0D4609352870F8BD012E58D13878042855DA0D460835F5E7012EC1
:20400C0050D1387804284DDC0D46ED1DEDE7022E48D138880D461435C3E7012E42D10D4659
:20402C00287901283ED00A463878D178D07061B9002837D05078012803D0042818BF0528D6
:20404C0030D1012005F058FDF8BD387850BB5078022818BF052825D105F014FEF8BD0D467D
:20406C0005F189041F220021204603F0EFF939463246204602F0BEFD0020AE710EE00D4684
:20408C0005F16A041F220021204603F0DFF939463246204602F0AEFD01206E713146224644
:2040AC0003F0E2FFF8BDC04664230020642300202DE9F04F804609AF0846ADF1340D0A937A
:2040CC0097F808B00992B98808903F880B9103F09DFD06467C497B48DFF8F491DFF8F4A18D
:2040EC00814ADFF808C200240FF2681E002E0588C8888988079538D0761E1FD07348016836
:20410C00D5B148460068014216D050460068014204D171480068008801420DD071484FF413
:20412C00EA7745A6056800976D4B01966B4F02941A8838683BA3A8470A206FE0054610465B
:20414C00079E0168002E37D048460068014233D050460068014204D15F48006800880142E4
:20416C002AD040F2CF134AA214E00D461046079E01680EB34846006801421DD050460068A9
:20418C00014204D1544800680088014214D04FF4E27341A2604606680093CDF804E00292E9
:2041AC00CDF80C800497CDF814B04D4B06941A884A4B18681BA3B047BD420EDB0B98E91B51
:2041CC008142D4BF8AB2021C0A9802800898C0683918099802F00EFD1FE03C48079F0168B6
:2041EC00D7B148460068014216D050460068014204D139480068008801420DD039484FF4A1
:20420C00ED7727A605680097354B0196334F02941A88386803A3A847072420460DB0BDE864
:20422C00F08FC046427574746F6E5F536572766963652E6300C046C041747472696275749B
:20424C006520776173206E6F7420666F756E642E00C046C052656164417474724342203AEB
:20426C0020257320636F6E6E48616E646C653A202564206F66667365743A202564206D6501
:20428C0074686F643A2030782530327800C046C0425554544F4E3100425554544F4E300083
:2042AC00416E20696E76616C6964206F666673657420776173207265717565737465642E0A
:2042CC0000C046C078BD0000DC29002030BD0000400500003C0500004405000050BD0000E9
:2042EC008405000048BD000034BD00004CBD00002DE9F04F804609AF0846ADF1340D0A938D
:20430C0097F808B00992B98808903F880B9103F0A9FC06467A498448DFF8EC91DFF8ECA148
:20432C007F4ADFF800C200240FF2641E002E058888884988079538D0761E1FD07148016883
:20434C00D5B148460068014216D050460068014204D16F480068008801420DD06F484FF4D5
:20436C00E57744A6056800976B4B0196694F02941A8838683BA3A8470A206FE00546104623
:20438C00079E0168002E37D048460068014233D050460068014204D15D48006800880142A4
:2043AC002AD040F2C51349A214E00D461046079E01680EB34846006801421DD05046006872
:2043CC00014204D1524800680088014214D04FF4DD7340A2604606680093CDF804E00292AF
:2043EC00CDF80C800497CDF814B04B4B06941A88484B18681BA3B047BD420EDB0B98E91B13
:20440C008142D4BF8AB2021C0A9802800898C0683918099802F0EEFB1FE03A48079F016897
:20442C00D7B148460068014216D050460068014204D137480068008801420DD037484FF462
:20444C00E87726A605680097334B0196314F02941A88386803A3A847072420460DB0BDE82C
:20446C00F08FC046446174615F536572766963652E6300C041747472696275746520776104
:20448C0073206E6F7420666F756E642E00C046C052656164417474724342203A202573202E
:2044AC00636F6E6E48616E646C653A202564206F66667365743A202564206D6574686F64E8
:2044CC003A2030782530327800C046C053747265616D00C0537472696E6700C0416E20696E
:2044EC006E76616C6964206F666673657420776173207265717565737465642E00C046C03A
:20450C00A428002030BD0000400500003C0500004405000050BD00008405000048BD00004C
:20452C0034BD00004CBD000078BD00002DE9F04F804609AF0846ADF1340D0A9397F808B05C
:20454C000992B98808903F880B9103F0E3FB06467B497A48DFF8F091DFF8F0A1804ADFF874
:20456C0004C200240FF2641E002E058888884988079538D0761E1FD072480168D5B14846C8
:20458C000068014216D050460068014204D170480068008801420DD0704840F2A11744A614
:2045AC00056800976C4B01966A4F02941A8838683BA3A8470A206FE005461046079E016817
:2045CC00002E37D048460068014233D050460068014204D15E480068008801422AD04FF432
:2045EC00CE7349A214E00D461046079E01680EB34846006801421DD050460068014204D1DB
:20460C00534800680088014214D040F2911340A2604606680093CDF804E00292CDF80C80EF
:20462C000497CDF814B04C4B06941A88494B18681BA3B047BD420EDB0B98E91B8142D4BFC9
:20464C008AB2021C0A9802800898C0683918099802F0D0FA1FE03B48079F0168D7B14846B3
:20466C000068014216D050460068014204D138480068008801420DD0384840F2A71726A6BB
:20468C0005680097344B0196324F02941A88386803A3A847072420460DB0BDE8F08FC0468E
:2046AC004C45445F536572766963652E6300C04641747472696275746520776173206E6F36
:2046CC007420666F756E642E00C046C052656164417474724342203A20257320636F6E6EAE
:2046EC0048616E646C653A202564206F66667365743A202564206D6574686F643A20307852
:20470C002530327800C046C04C45443100C046C04C45443000C046C0416E20696E76616C48
:20472C006964206F666673657420776173207265717565737465642E00C046C078BD000073
:20474C00D02A002030BD0000400500003C0500004405000050BD00008405000048BD0000DC
:20476C0034BD00004CBD00002DE9F04F05460F467948DFF8F0B1DFF8F0A1DFF8F091DFF86E
:20478C00F0817D49ADF1240D0FF2681C2E1C089202887B48079238D0761E1FD06F4801680D
:2047AC00171C00F087806E480068014200F0828058460068014204D1504600680088014289
:2047CC0078D06C484FF48C7740A604680097434601964F4602951A88386862E00968041D40
:2047EC00002AA4F1030635D05D480068014231D058460068014204D15046006800880142A8
:20480C0028D04FF48A7342A213E00968841C064602B35348006801421CD0584600680142F0
:20482C0004D1504600680088014213D04FF4867339A2524805680093CDF804C00292039783
:20484C00002304930593069343461A884B4618681AA3A847022F00DA37BB414D3F4C0798C4
:20486C002A682168061C25D0114223D058460068014204D150460068008801421AD03F485C
:20488C004FF492760468009625A5019502970123039300220493464605924D46069232884B
:2048AC00286806A3A04705E0089930463A4602F0A1F9278009B0BDE8F08FC0464C45445F06
:2048CC00536572766963652E6300C046536574506172616D657465723A20506172616D65E7
:2048EC0074657220232564206E6F742076616C69642E00C0536574506172616D6574657239
:20490C00203A202573206C656E3A20256400C0464C45443100C046C04C45443000C046C09A
:20492C004C656E677468206F75747369646520626F756E64733A204C656E3A202564204D78
:20494C00696E4C656E3A202564204D61784C656E3A2025642E00C04678BD000030BD0000D4
:20496C00400500003C0500004405000050BD00008405000048BD000034BD00004CBD0000C7
:20498C00D02A00202DE9F0411C4615468C4208BF854282BF00230022E5E0002C08BF002D26
:2049AC000AD100290EBF00286FF000006FF0000100F0E1F8BDE8F0815FF000085FF0000EA0
:2049CC00002C08BF8D429CBF2C1C0025070C47EA01470E0CB44208BFBD429EBF5FEA0444F1
:2049EC0044EA15445FEA0545070A47EA01670E0AB44208BFBD429EBF5FEA042444EA15649E
:204A0C005FEA0525470847EAC1774E08B44208BFBD4200F29380870847EA81778E08B44204
:204A2C0008BFBD427CD8C70847EA4177CE08B44208BFBD4266D8070947EA01770E09B44202
:204A4C0008BFBD4250D8470947EAC1674E09B44208BFBD423AD8870947EA81678E09B44258
:204A6C0008BFBD4224D8C70947EA4167CE09B44208BFBD420DD8E60146EA5566EF01B14292
:204A8C0008BFB84201D3C01BB14158EB08085EEB0E0EA60146EA95664FEA8517B14208BF8F
:204AAC00B84201D3C01BB14158EB08084EEB0E0E660146EAD5666F01B14208BFB84201D3DD
:204ACC00C01BB14158EB08084EEB0E0E260146EA15762F01B14208BFB84201D3C01BB141EE
:204AEC0058EB08085EEB0E0EE60046EA5576EF00B14208BFB84201D3C01BB14158EB08087A
:204B0C004EEB0E0EA60046EA9576AF00B14208BFB84201D3C01BB14158EB08084EEB0E0EA7
:204B2C00660046EAD5766F00B14208BFB84201D3C01BB14158EB08085EEB0E0EA14208BF62
:204B4C00A84201D3401BA14158EB08085EEB0E0EA34208BFAA423EBF2D0A45EA0465240A04
:204B6C0089D3734642461E4617460B46024631463846BDE8F08170472DE9F04F0D46824600
:204B8C00DFF89881684CDFF8A491287809AF9B46ADF1240D0228079207D140466B680688CF
:204BAC00188842F60211814224D0284603F02EF85B48474601683888D0B15A480068014299
:204BCC0016D02068014204D148460068008801420ED05948046840F2132733A60025009796
:204BEC00544B0196524F02951A88386829A3A0470A204CE051480068002E80462BD049486F
:204C0C00006818EA000F26D0206818EA000F05D148460068008818EA000F1CD03879FE2858
:204C2C000CBF28A62EA6284602F0F0FF444940F201230C6800932DA201920290CDF80CA05D
:204C4C00002104963B4B0591394E06911A883068414610A3A04738880090079A5B462946F7
:204C6C00504602F053FE06463648076876B96FB1786858B1284602F0C9FFCDF800B07C685D
:204C8C00079B02464FF489515046A047304609B0BDE8F08F427574746F6E5F53657276694D
:204CAC0063652E6300C046C041747472696275746520776173206E6F7420666F756E642ECF
:204CCC0000C046C02D20726573746F72696E6720626F6E64656420737461746500C046C045
:204CEC002D204F5441207772697465005772697465417474724342202843434344293A2029
:204D0C00706172616D3A20256420636F6E6E48616E646C653A2025642025730078BD0000A9
:204D2C0030BD0000400500003C0500004405000050BD00008405000048BD000034BD00001F
:204D4C004CBD0000E4290020F8B507460020C4F209000068800880F0CA8004F003FB42F268
:204D6C002421C4F208010A68002112F0030F18BF0121D20828BF41F00201002F18BF41F057
:204D8C00040141F6DC06C2F2000696F90720821A052A04DAB2798A4208BFB28871D041F264
:204DAC009C340F28A0F10F02C5F2000426DB02EB0012F03A1712072F88BF0727BC46BCF1D6
:204DCC00060F88BF4FF0060C54F82CE00423254603EB8C03EB58CD08A3EB0E0303F0FF0CFE
:204DEC0024BFC3F30725AC448D0824BFC3F30745AC444D0805D30CEB136C02E04FF0000CB8
:204E0C00674654F82730CC0803F0FF0524BFC3F3072425448C0824BFC3F3074425444C0809
:204E2C0028BF05EB1365A2EB07221FFA8CF3534380330022082B88BF012243F6B473C5F2AA
:204E4C0000031C681B684FF4D07C34275219241703F0FF0307FB14C45C434FF6FF73B4FBD8
:204E6C00F2F2934238BF1A1C802892B2B28005DA10F1800F03DA6FF07F0000E07F20F07118
:204E8C00B17142F20800C4F2090001681F2A4FF00000316015D340F2FF13934213D2194622
:204EAC005208401C93420ED25208401C93420AD25208401C914206D25208401C9142EFD368
:204ECC0001E01F22B2800F3A4FF600714FF0350E1209C8F2A401C4F2090E40EAC20001437A
:204EEC00CEF8FB1F4FF0000CCEF8FFCFF8BD41F6E2024FF6FD50082141F2300EC2F2000235
:204F0C00C0F2A4001170C4F2090ECEF80000F8BD2DE9F04F694CA068ADF1440D002800F04D
:204F2C009D80DFF890914FF00A0B4FF0010A4FF000088FE005F0C4F821785F4BCA0002EB51
:204F4C0041129A18B2E8E01007ABA3E8E010E0CAE0C364CA4F1C07F01F0183E8640004F1C8
:204F6C000C05627821708A4208BF84F802A005F0A3F8BDF82000002808BF2E1C09D0034638
:204F8C00A62138A2284604F05BFB284604F052FE2E18079FB8B204F06BFC42A20CCA00F09F
:204FAC0075FE42A20CCA00F071FE03F075FAA91B00902EA23B0CA631304604F041FB2846A1
:204FCC0004F038FE2A18A0682946521B04F062FFBDF82200E0B105F06BF8B9F8007037B94F
:204FEC0009990A9F0346009124A2019720E00A9900910B9F01970C9E02960D9B03930E9A84
:20500C0004920F9F0597109E0696099B02460FE00B9800900C9F01970D9E02960E9B039387
:20502C000F9A0492CDF81480CDF818800A9B099A2846A62104F004FB284604F0FBFD2A1863
:20504C000D2002F8010B02F801BBA0682946521B04F020FFA07800283FF46CAF11B0BDE870
:20506C00F08FC04623253036752000C05B2025642E25303375205D2000C046C07B65767440
:20508C003A20666D743D25702C20617267733D5B307825782C2030782578202E2E2E5D7DA6
:2050AC0000C046C0000000000000F03E0000000000408F408A050000B0190020F818002039
:2050CC002DE9F04F8346ADF15C0D03F051FE0026012804D104F0A3FC022808BF01265449F1
:2050EC000868C0F38150012805D151F80C1C0120090E884006434F494F48504C0978006843
:20510C00C0F34600206003F033FEA046012818BFD8F8000004D1D8F80000401CC8F800006F
:20512C00DFF81CA130B15246FF2107467F1E02F8011BFBD1DBF80020002702F0FF01FF2936
:20514C0019D094465146DE463B4601250CF0FF02904203D905FA02F4264201D0022064E0DF
:20516C000CF0FF025EF804CF8B5427435B1C0CF0FF02FF2AECD1092001F0D0F836480021D9
:20518C0024220823C0F800B001A804F08DFF4FF0010901AA31488DF81C90494604F080FF61
:2051AC00D8F8003023B32E4C0025AA4609FA05F0064217D1074204BF05F0FF0141F4C0411F
:2051CC0003D01F48405D5BF820101E4801F00CFBE8B24FF0FF3104F0A9FBD8F80030C4F8AE
:2051EC0000A001E0042020606D1C241D9D42DDD30AA800213022082304F04EFF002410213F
:20520C000AAB1148114A009404F042FF104A52F80D0C494620F4F85040F4005042F80D0CD1
:20522C000C4BC2F8FF1F2046196017B0BDE8F08FB43F0050F018002080120840E418002008
:20524C0054180020007FC76774180020518200000D30094008000940EC18002090180020C7
:20526C00D81700202DE9DF4F6548DFF88CC1DFF874B1DFF874A1DFF87491DFF87481DFF897
:20528C0074E1078856480E1C32A313D10168002F5DD058460068014259D050460068014225
:2052AC0004D1484600680088014250D040F2F7472CA62DE0012E17D0022E48D1002A46D13D
:2052CC000168002F43D05846006801423FD050460068014204D1484600680088014236D0E2
:2052EC004FF4A16723A613E0A2B90168002F2ED05846006801422AD050460068014204D151
:20530C00484600680088014221D040F2FD4725A6002212E039480168CFB1584600680142C7
:20532C0015D050460068014204D148460068008801420CD040F2015722A6604604680097CE
:20534C0001967746464602923A883068A0470090BDE8DF8F50726F6A6563745A65726F2E44
:20536C006300C04650616972696E6720737461727465640052652D65737461626C69736834
:20538C0065642070616972696E672066726F6D2073746F72656420626F6E6420696E666F1A
:2053AC002E00C04650616972696E6720636F6D706C65746564207375636365737366756CA6
:2053CC006C792E0050616972696E67206661696C65642E204572726F723A202530327800AE
:2053EC0034BD0000400500003C0500004405000050BD00008405000048BD000030BD000059
:20540C0078BD00002DE9F04F5D4C241F27690346ADF11C0D002F68D05048DFF848A1DFF8D4
:20542C004891DFF84881DFF848B1DFF848C1DFF848E106882EA23BBB49490968002E4ED094
:20544C005046006801424AD048460068014204D1404600680088014241D0704640F2A3463C
:20546C000568009626A30193387902906078039000260496634605965F4606961E88386887
:20548C0013463246A8472AE03C48016816B35046006801421ED048460068014204D14046BD
:2054AC0000680088014215D070464FF49566056800961EA6019638790290039300260496DD
:2054CC00674605965B46069618683E8813463246A8472769397907F1080004F0ADFA2069CF
:2054EC0004F0CEFA00202061607007B0BDE8F08F50726F6A6563745A65726F2E6300C0468A
:20550C0053656E74206D6573736167652077697468206F70636F6465203078253032782E75
:20552C0020417474656D70742025640047617665207570206D65737361676520776974684E
:20554C00206F70636F6465203078253032782E205374617475733A20256400C078BD000034
:20556C0034BD0000400500003C0500004405000050BD0000840500004CBD000030BD0000D3
:20558C00B41E00202DE9F0438046D8F80450D8F808600F46ADF15C0D04F092FD29780129F8
:2055AC0003D104F089FD002096E04FF0010985F8009004F081FD1FB90DA804F085FA0DAF77
:2055CC00387868707878A87078686860B868A860F868E86038692861387D2875787D687569
:2055EC00B87DA875B869A861387F2877787F00246877B87F2C622C63102185F83C10A87766
:20560C0027466F626F63AF62AF6385F82C7085F82D7085F83D70307A00F080FE404601F05F
:20562C001FF8404601F034FB78B92D480068C068014630688847307A00F0DCFE04F040FD18
:20564C002F7004F039FDB84645E001A839463022082304F021FDCDF818800094214A716866
:20566C0005F1580001AB04F013FD01A824220823394604F019FDA8788DF81C9038B905F145
:20568C007400394601AA04F00BFD17482861687838B905F19000394601AA04F001FD1348AE
:2056AC00E86001A839462422082304F029FD0697ADF8147005F1AC000D49CDF81C800A2298
:2056CC0001AB04F019FD05F144000A4A00940421434603F0FFFD404617B0BDE8F083C046DE
:2056EC00D001001069610000D99E0000D19E0000F16E0000F19C000041F21C302DE99041BB
:20570C00C5F200000268B2F1FF3F08BF002203F02FFB002840F08B8041F2183041F2A001C3
:20572C00C5F20000C5F200010068D1F80080070F08F0FF08B8F1800F28BF4FF0000803F0CF
:20574C0017FB4FF0FF3190B1401E07D0401E1DD1E7B908F10A084FFA88F117E0381C66D00C
:20576C00801E13D108F114084FFA88F10EE03846401E0AD0801E5AD0001F58D0401E05D1DD
:20578C0008F116084FFA88F100E00A2116294EDB40F2844446F25C01002342F2082E012074
:2057AC0040F2801CC4F26024C4F20C012360C4F2043E0860C4F2283CCEF80000DCF800007B
:2057CC0038B140F20010C4F2203000681046FCF735F844F20402C4F203021068052142F2E5
:2057EC004803C2F20001C4F2030320F003000143116019684FF0000EC0F2391E6FF35B4144
:20580C004EEA01000421C4F2090118600868C0F3013001280CD10A684FF6FF70CFF6FC4065
:20582C00104040F400320A600860BDE89081FEE7BDE890812DE9FE43002A894607464CBFDB
:20584C0047F6FF74141C002F08BF00205ED03B88002B30D03C4800882146984229DA3B4A55
:20586C001088984215DA3A4A168826B928A2484602F080FD1BE03748019100260268CDF892
:20588C00009035490296154618466A46A847029D12E03248026800E012681AB11089834206
:2058AC00FAD100E000225268484602F063FD054602E01CA2DBE70025601B26DD388828B18C
:2058CC00611B48461AA202F055FD4519B868E0B1D7F80480661BB8F1000F0DD0404604F0C0
:2058EC00A9F9401DB04207DC611B484611A2434602F040FD4519661B122E06DBBB68611BB4
:20590C0048460EA202F036FD45192846BDE8FE837B6D6F64756C652D726F70653A25787DEE
:20592C0000C046C07B6D6F64756C652325647D003A2000C0222573222C2000C06C696E65C1
:20594C002025643A2000C0467CBD00007ABD00008A05000064BD0000F1900000002E002043
:20596C002DE9F04F0C4646498A8BADF13C0D84460992487B0D90CE7800964A8B0892888CC5
:20598C000C900A8B488C079291F80CE00B908E78CA7A088C0692CB8A0A908A7A91F804A0B7
:2059AC0005924A7AC88B04920A7A91F801800392CA798D8A02928A79CF6A01924A79E146CD
:2059CC00A9F54079B9F11D0F10D8DFE809F0554F4D4B49474543403D3B393634320F312F96
:2059EC002D2B2A24211F1D0F1A191816BCF1270F43DA604602F062FF13E0DDF834E0F2461B
:205A0C00D046CDF8148016E00C980B900B980A900A98054620E04431086820608888A08017
:205A2C002BE00990099808900898079007980690069B238021E0059804900498039001E08B
:205A4C003E31E9E7039802900298009006E0019A89310DE06A310BE02846E2E7009E0BE036
:205A6C003831D9E7276008E05A3100E04A311022204601F0BFF800E026700FB0BDE8F08F03
:205A8C00642300202DE9F0430746ADF11C0D04F0FBFA03F0EBFC4FF000090646CDF80C903E
:205AAC0004F0D2F930F0010002D00398B04202D16FF0040066E078684C4658B1B0F1FF3FC5
:205ACC0005D004A903F0D6FB30B1804659E04FF0FF3000E02046049004F0D2FA049D4FF0AC
:205AEC0001082D1802E00A463BE004937068049904F0C2FA00282DD0684602F0BBF9D8B939
:205B0C00BDF8040005A903F0B5F988B9BB68BDF81400BDF80610029A984748B1BDF814003C
:205B2C00BDF80650B881029BFD81C8463B6111E0029903A803F06EFC0498641CB0F1FF3FC1
:205B4C00D4D00028D2D004F09BFA2B1A02D004989842CAD2039F03F021FF06F1080547B168
:205B6C003A4652F80C1C0029BDD1296842F80C1C2F6004F015F824B1706804F079FA641E57
:205B8C00FAD1404607B0BDE8F08370472DE9F04707467E68D7F8089090460C4604F090FA95
:205BAC00B56A8246002D65D106F1AC0004F05CFA34620025F5775046756204F07DFA04F0AF
:205BCC007FFA314C82462078012804D0042002F0F3FF01202070504604F06EFA294A1068D0
:205BEC00414640F480701060384603F01DF8B062C0B93846414602F0D7FAB078D0B9B168DB
:205C0C0006F1740004F038FAE8B9B5621020F0774946304601F0D6FB04F052FA8246207831
:205C2C0040B323E0D9F80010886B40F020008863B07810B12846BDE8F087B16806F174005C
:205C4C0004F01AFA10B1706ABDE8F0873846414602F0AAFA1020B5624946F077304601F03A
:205C6C00B1FB04F02DFA8246207818B1042002F0F7FE2570504604F01FFA4FF0FF30BDE8D2
:205C8C00F087C04630100040F11800202DE9FC4191EA03084CBF4FF000484FF000084FEAE7
:205CAC00C32545EA52554FEAC2264FEA43077F0D11BF45F0004500210020BDE8FC815FF4EA
:205CCC00E06E1EF1FF0E774555D04FEAC12343EA50534FEAC0224FEA4104640D11BF43F073
:205CEC00004300210020BDE8FC81744543D0E419A3FB0501A3FB06E7A2FB06631EEB030EDA
:205D0C0057F1000751F10001A2FB05631EEB060E57F1000751F10001FF1851F10001C019FE
:205D2C0051F100014CBF4FF4806E4FF4007E10EB0E0051F1000148BF641C01D440004941A5
:205D4C005FF44077FF37E41BDEBF00210020BDE8FC8117F58067BC420DD24FEAD02040EAD5
:205D6C0041504FEA41014FEA113141EA045141EA0801BDE8FC810020FF21C900C91D0905BD
:205D8C0051EA0801BDE8FC812DE9F04390460A68D8F800401678814600271D463846ADF1F5
:205DAC00140D531C242E0B6053D112F8016F5B1C4C2E0B600ED1AA68E41C24F00304241D43
:205DCC0054F8040C494600F05BF82968EF600127091A2960462E1AD1E41C24F00304241D1A
:205DEC0054F8040CE41C029024F00304241D54F8040C002749460390AA68ADF8047001A8D4
:205E0C00FFF718FD2968EF600127091A2960532E1FD1E41C24F00304241D54F8040CE86145
:205E2C00C8F80040288B0090A968EA69D9F800004346FCF761FAD9F80040002714B10119F0
:205E4C00C9F80010D8F800402968EF60091A01272960662E0AD12B8B23B9E41D24F0070480
:205E6C00083403E0E41C24F00304241D1FB9E9690E700127EF60C8F8004005B0BDE8F083AF
:205E8C00FEB5374B05461888AB8814460F4698422ADA34480088984216DA3348008888B10C
:205EAC000097002C54BF111C47F6FF712F4800680191002102912E496A4606461846B04739
:205ECC00029E17E01BA210E02A48006800E0006818B101898B42FAD100E000204268214654
:205EEC00384602F047FA04E017A22146384602F041FA0646002C02D4A01B0A2806DB2B6887
:205F0C00A11B384613A202F035FA8619A88978B1002C06D4A86803F08DFEA11B401D8842F5
:205F2C0006DCAB68A11B38460BA202F023FA86193046FEBD7B6D6F64756C652D726F7065B6
:205F4C003A25787D00C046C07B6D6F64756C652325647D00257000C028272573272900C0A5
:205F6C007CBD00007ABD00008A05000064BD0000F1900000002E002034482DE9F0410E460F
:205F8C0001683348008806AF98461546ADF1200DF8B13048006801421BD02F4800680142F7
:205FAC0004D12E4800680088014212D02E4840F216530468009311A20192029603950023CC
:205FCC00049305930693274B1A88254B186807A3A047CDF80080388832462B4601900020B9
:205FEC0001F01CFF08B0BDE8F081C04650726F6A6563745A65726F2E6300C04628434229D1
:20600C002043686172616374657269737469632076616C7565206368616E67653A207376A5
:20602C0063283078253034782920706172616D4944282564292E2053656E64696E67206DBC
:20604C00736720746F206170702E00C034BD000078BD0000400500003C0500004405000013
:20606C0050BD0000840500004CBD00002DE9F043814634480E4601683048008807AF984698
:20608C001546ADF11C0DF8B12F48006801421BD02E480068014204D12D480068008801427E
:2060AC0012D0274840F223530468009311A20192029603950023049305930693254B1A8869
:2060CC00254B186807A3A047CDF800803888494632462B460190012001F0A0FE07B0BDE819
:2060EC00F083C04650726F6A6563745A65726F2E6300C04628434229204368617220636FA7
:20610C006E666967206368616E67653A20737663283078253034782920706172616D4944EB
:20612C00282564292E2053656E64696E67206D736720746F206170702E00C04678BD00002F
:20614C004CBD000034BD0000400500003C050000440500008405000050BD00002DE9F84383
:20616C000746D7F80880D8F800007D68066C16F4F06F466425D1F00910D2700950D395F83B
:20618C003C00AC6B401E844288BF041C3846214602F0F6FCA86B001BA86308E0A96B384699
:2061AC0002F0EEFC014695F82D00A96318B9A86B002835D101E00020A863384602F08EF8D6
:2061CC002EE0F00A0ED3D8F80000002144684160A96B04F00F04202988BF2021384602F030
:2061EC00CFFC19E04FF0000902E0A86B401EA863A86B88B13846012102F0C2FCD8F80000BD
:20620C00446814F00F04C0F80490EED0296B686B491E2963401E6863EC77384601F0FEF959
:20622C00B0090DD3AE6A5EB13846314602F0FCFCA862A86A314618B93846091D01F0B4FF07
:20624C00BDE8F8837FB506462B480D4601682B480088F0B12A48006801421AD029480068E7
:20626C00014204D1284800680088014211D00D2D0CBF11A213A2274840F284530468009392
:20628C0017A30193224B02921A88204B186810A3A04745F0004230464FF4E02102F052FE09
:2062AC002846B0F10D011C4802D0491E02D1243003F0D6FE00907FBD427574746F6E203092
:2062CC0000C046C0427574746F6E203100C046C050726F6A6563745A65726F2E6300C0464B
:2062EC00427574746F6E20696E746572727570743A20257300C046C034BD000078BD00002B
:20630C00400500003C0500004405000050BD00008405000048BD0000841F00202DE9F041FD
:20632C0005462E480068EFF3118880F311882C4A505D411C0028515549D12A4CA900675C57
:20634C0007F03F003F280C4401D0FFF7E7FF607800F03F003F2801D0FFF7E0FF668837F06E
:20636C007F0019D1F80911D24FF08054D4F8B801406901463046884704F5DC742068406B7B
:20638C000146304688470128F8D120E0164850F82610012088471AE04FF08054D4F8B80115
:2063AC00C069014630468847D4F8B801406A014630468847D4F8B801C06A01463046884726
:2063CC0001210A4A0A48116001688908FCD388F31188284603F0F8F8BDE8F08124BD000053
:2063EC003C2D002034B90000782D002028200860282008402D492DE9F0410968EFF311886D
:20640C0081F311882A4B195C4A1E01291A5449D12849800045180E5C6F8836F07F0019D121
:20642C00F00911D24FF08054D4F8B801806901463846884704F5DC742068406B014638461E
:20644C0088470228F8D120E01D4850F82710002088471AE04FF08054D4F8B801006A014658
:20646C0038468847D4F8B801806A014638468847D4F8B801006B01463846884701210E4AC2
:20648C000E48116001688908FCD306F03F003F2801D0FFF7AFFF687800F03F003F2801D008
:2064AC00FFF7A8FF88F31188BDE8F08124BD00003C2D002034B90000282008602820084072
:2064CC00782D00202C482DE9FC47006800680146202088472D4DDFF8A4A04FF002080F20EB
:2064EC0000214FF4C07207232D3D286041F61D5068605046CDF8008001F05AFB214824497B
:20650C000124A0F10C06091F0C6056F8041C8908FBD3DFF86C90B9F800102C61012905D026
:20652C000020214601F022FC444621E00027164D0760032345F8393C376030688008FCD2E0
:20654C00CDF80080504639466022052301F030FB346030688008FCD3202045F8210C45F8A5
:20656C00397C0826C5F8FF6FC5F8F36F45F8394CC9F80440BDE8FC87A001001000A00C4056
:20658C00EC2C002044600C4039400C4039400C4038600C4038B503F038FC2A4C256805F04D
:2065AC000C000C2846D0E8081ED202F081FD014625480068884217D22448254A254D0368A2
:2065CC0012682868B3FBF2F22018891A03F044FD2868201803F044FD0120FDF775F92868F5
:2065EC00201803F041FD27E0280923D21A4A680904D21168104621F0010103E010460168CA
:20660C0041F001010160983210684FF0805440F003001060D4F8B80180690146202088471E
:20662C00D4F8B8010D4C806B2168804701202060206801E0F9F71EFF03F0EDFB01F092F8C8
:20664C0038BDC046602A00201CBD000020BD000028BD00000CBD00008C2108402C2009409B
:20666C002B4AF0B538CAADF11C0D02A938C10CCA4FF0805681E80C0084684568D6F8D011DF
:20668C002068C9688847216822488A6B10408863206840F2F271416495F83C0095F83D20CE
:2066AC002168C0100DEB8000806810434863684603F0CEFC1A4FDFF864E0D6F8D0112B7FCF
:2066CC00DFF854C06A7FA87F496857F823705EF82260AA695CF820300D46206801993E439B
:2066EC003343A8470F490A1F106840F010001060086840F001000860A07BFF2806D0E07B04
:20670C00FF2803D0086840F44040086007B0F0BDF4B900000DF8FFFFE0B90000D8B90000A9
:20672C00C8B90000301000402DE9F0414568876816460C4603F0C4FC0346A86B32462146CD
:20674C0030B1184603F0B8FC4FF0FF30BDE8F081AA6329630024EC7718466C6303F0ACFCDB
